:020000040000FA
:0400000056EF07F0C0
:1008000000496E677265736520656C2061666F7262
:100810006F206D6178696D6F2028656E7472652038
:100820003230207920313530293A200053454E535B
:100830004F52313A200053454E534F52323A200026
:0108400000B7
:10084200000E346E000E336E000E326E000E316EEC
:10085200000E3A6E000E396E000E366E640E356E64
:10086200ACEC07F0BEEC07F0E1EC07F0010E016E14
:10087200080E026E000E046E2A0E036E2CEC07F0B8
:1008820037EF05F086EC07F0176E186AD890393406
:10089200D96E3A34DA6E190ED926000EDA2217C052
:1008A200DEFF18C0DDFFD8903934D96E3A34DA6EE3
:1008B200190ED926000EDA22200EDE18DE10D8A478
:1008C20065EF04F067EF04F0E7EF04F0020E391869
:1008D2003A10D8A46FEF04F071EF04F08BEF04F03C
:1008E20019C001F01AC002F0000E046E0A0E036E67
:1008F20073EC07F01B5001261C500222F00E01245B
:10090200356EFD0E0220366E000E326E010E316E15
:10091200F5EF04F0030E39183A10D8A493EF04F05F
:1009220095EF04F0BDEF04F019C001F01AC002F017
:10093200000E046E640E036E73EC07F001C017F034
:1009420002C018F01BC001F01CC002F0000E046EC1
:100952000A0E036E73EC07F001501726025018229C
:100962001D5017261E501822300E1724356EEB0E1E
:100972001820366E85EF04F0000E326E000E316ED6
:10098200000E3A6E000E396E000E386E000E376E93
:10099200DAEF04F0D8903734D96E3834DA6E190EA3
:1009A200D926000EDA22000EDE6E000EDD6E374A08
:1009B200382A3950375C3A503858D8A0E3EF04F05F
:1009C200E5EF04F0CBEF04F0F5EF04F0D890393402
:1009D200D96E3A34DA6E190ED926000EDA22DF50B9
:1009E200CCEC07F0394A3A2A365009E1140E355C4C
:1009F200D8A0FEEF04F000EF05F00BEF05F0365043
:100A020009E1970E355CD8A009EF05F00BEF05F070
:100A120037EF05F0000E326E000E316E000E3A6EA8
:100A2200000E396E000E386E000E376E28EF05F09C
:100A3200D8903734D96E3834DA6E190ED926000EB2
:100A4200DA22000EDE6E000EDD6E374A382A395089
:100A5200375C3A503858D8A031EF05F033EF05F043
:100A620019EF05F0000E366E640E356E31503210FD
:100A7200D8B43EEF05F040EF05F043EF04F0C2ECCE
:100A820006F00DC02DF00EC02EF08AEC06F00DC05F
:100A92002FF00EC030F02E5007E1320E2D5CD8B090
:100AA20055EF05F057EF05F068EF05F03550335C70
:100AB20036503458D8B060EF05F062EF05F067EFBA
:100AC20005F0334A342A8B9068EF05F08B80305062
:100AD20007E1320E2F5CD8B071EF05F073EF05F02D
:100AE20080EF05F033503410D8B47AEF05F07CEF84
:100AF20005F080EF05F03306D8A034068B902DC0A8
:100B02000DF02EC00EF011EC06F02C0E016E080E48
:100B1200026E000E046E090E036E2CEC07F05350A9
:100B2200300FCCEC07F05150300FCCEC07F04F50A7
:100B3200300FCCEC07F099EC07F02FC00DF030C06D
:100B42000EF011EC06F0360E016E080E026E000E6B
:100B5200046E090E036E2CEC07F05350300FCCECF0
:100B620007F05150300FCCEC07F04F50300FCCEC67
:100B720007F099EC07F033C00DF034C00EF011EC21
:100B820006F0000E8C6E000E8A6ED8904F34D96E2D
:100B92005034DA6E3B0ED926000EDA22DF508A6E0E
:100BA200010E8C6E1A0E176EF80EE82EFED7172E57
:100BB200FCD700D0000E8C6E000E8A6ED890513495
:100BC200D96E5234DA6E3B0ED926000EDA22DF508D
:100BD2008A6E020E8C6E1A0E176EF80EE82EFED773
:100BE200172EFCD700D0000E8C6E000E8A6ED890A5
:100BF2005334D96E5434DA6E3B0ED926000EDA2203
:100C0200DF508A6E040E8C6E1A0E176EF80EE82EE6
:100C1200FED7172EFCD700D040EF05F000EF00F012
:100C2200030E046EE80E036E0DC001F00EC002F05A
:100C3200FAEC06F001C006F002C007F0000E096EE1
:100C4200640E086E50EC06F006C053F007C054F074
:100C5200000E046E640E036E0DC001F00EC002F0B1
:100C6200FAEC06F001C006F002C007F0000E096EB1
:100C72000A0E086E50EC06F006C051F007C052F0A2
:100C82000DC001F00EC002F0000E046E0A0E036EDB
:100C9200FAEC06F001C04FF002C050F01200000E54
:100CA2000B6E000E0A6E08500910D8B45BEF06F006
:100CB2005DEF06F085EF06F0010E0C6E65EF06F0B3
:100CC200D890083609360C2A09AE6AEF06F06CEFA6
:100CD20006F061EF06F0D8900A360B360850065C33
:100CE20009500758D8A078EF06F07AEF06F07FEFA8
:100CF20006F00850065E0950075A0A80D890093259
:100D020008320C2E6CEF06F00AC006F00BC007F09A
:100D120012008984060EE82EFED700D0899480A6A0
:100D220095EF06F097EF06F090EF06F0CD8080B6D3
:100D32009DEF06F09FEF06F098EF06F0CD90CECF34
:100D420015F0CFCF16F0D89016300F6E1530116E09
:100D52000FC012F011C006F012C007F0000E096EAB
:100D62003A0E086E50EC06F006C013F007C014F0FD
:100D7200000ECF6E000ECE6E13C00DF014C00EF03A
:100D820012008980060EE82EFED700D0899080A23C
:100D9200CDEF06F0CFEF06F0C8EF06F0CD8080B2BF
:100DA200D5EF06F0D7EF06F0D0EF06F0CD90CECF1C
:100DB20015F0CFCF16F0D89016300F6E1530116E99
:100DC2000FC012F011C006F012C007F0000E096E3B
:100DD2003A0E086E50EC06F006C013F007C014F08D
:100DE200000ECF6E000ECE6E13C00DF014C00EF0CA
:100DF200120003500410D8B401EF07F003EF07F01C
:100E020027EF07F0010E056E0BEF07F0D8900336BF
:100E12000436052A04AE10EF07F012EF07F007EFD1
:100E220007F00350015C04500258D8A01BEF07F0F2
:100E32001DEF07F021EF07F00350015E0450025A44
:100E4200D89004320332052E12EF07F001C001F0F0
:100E520002C002F01200000E076E000E076E47EF8E
:100E620007F007500124056E000E0220066E05C031
:100E7200F6FF06C0F7FF0800F5CFADFFACA244EFC6
:100E820007F046EF07F03FEF07F0072A0750056E1D
:100E9200066A0350055C04500658D8A053EF07F0C9
:100EA20055EF07F032EF07F01200AE0EF66E0F0E9E
:100EB200F76E000EF86E00EE3BF010EE14F0090033
:100EC200F5CFEEFFE550E150FAE1546A536A526AF7
:100ED200516A506A4F6A000EF86E080EF76E0001F2
:100EE20021EF04F001500302F3CF05F0F4CF06F036
:100EF20001500402F350062602500302F350062664
:100F020005C001F006C002F012009EAA8BEF07F0A6
:100F12008DEF07F086EF07F0ABA292EF07F094EFA8
:100F220007F096EF07F0AB98AB889E9AAE5012008E
:100F32000A0EAD6EACA2A0EF07F0A2EF07F09BEF96
:100F420007F00D0EAD6EACA2A9EF07F0ABEF07F004
:100F5200A4EF07F012000F0EC112929092949282A7
:100F62009286000E936E9490959095929594000EB1
:100F72008C6E000E8A6E8B901200000EB06E080E00
:100F8200AF6E949C948EAB8EAC8AAC98AC84B896BF
:100F9200AB9CAB881200016E01C0ADFFACA2D4EFD6
:100FA20007F0D6EF07F0CFEF07F012003F00060080
:100FB2005B004F0066006D007D0007007F006F0040
:100FC200CD8ECF0ECD16CD92000ECF6E000ECE6E10
:040FD200CD901200AC
:020000040020DA
:08000000FFFFFFFFFFFFFFFF00
:020000040030CA
:0E000000000C191EFF8381FF0FC00FE00F40A0
:00000001FF
