:04000000B9EF04F060
:100800000000000E0B6E000E076E000E936E000EC1
:10081000956E000E926E8A68000E8B6E000E8C6EC6
:10082000000E066E0BC00AF04AEF04F00A50020DEB
:10083000F350600FD96EDA6ADECF08F0DDCF09F031
:1008400008503F0B896E08C001F009C002F0060E87
:10085000036ED89002320132032E29EF04F00150CA
:100860008C6E06C001F0010E026E012A3AEF04F010
:10087000D8900236012E38EF04F00250FF0A8A1693
:10088000820E016EDE0EE82EFED7012EFCD78A689E
:10089000062A0A2A0B50016E026A070E0126000E74
:1008A00002220A50036E046A0150035C0450800A5D
:1008B000056E0250800A0558D8A061EF04F063EF7E
:1008C00004F016EF04F0070E0718D8A46AEF04F03E
:1008D0006CEF04F07EEF04F0000E076E2F0E0B1885
:1008E000D8A475EF04F077EF04F07BEF04F0000E6E
:1008F0000B6E10EF04F00B2A10EF04F0072A10EF34
:1009000004F000EF00F0F308F900FF00F9003900EF
:10091000F7000000000000000000000000000000E0
:10092000000036053F00360900123900F7000000CC
:10093000000000000000000000000000000036057C
:10094000F700F30800123F00000000000000000064
:10095000000000000000FF00F900F3083609F7006E
:10096000FF00F9000000000000000000000000008F
:100970000000060EF66E090EF76E000EF86E00EE21
:1009800060F010EE6CF00900F5CFEEFFE550E1509D
:08099000FAE1000101EF04F09F
:020000040020DA
:08000000FFFFFFFFFFFFFFFF00
:020000040030CA
:0E000000000C1F1EFF0181FF0FC00FE00F401C
:00000001FF
