:0400000051EF07F0C5
:090800000044433A2000250000E9
:10080A0082EC05F071EC07F028EC07F067EC07F0D2
:10081A00C282C2B213EF04F015EF04F00EEF04F037
:10082A00C350C4CF1AF01B6A1AC01BF01A6A1A12F4
:10083A00000E1B121AC020F01BC021F0000E21BEB0
:10084A00FF0E226E236E20C001F021C002F022C0EA
:10085A0003F023C004F05E0E056E000E066E000E55
:10086A00076E000E086EA8EC06F001C00DF002C07B
:10087A000EF003C00FF004C010F0FF0E116E030E4D
:10088A00126E000E136E000E146ED8EC05F0040EF4
:10089A000D241E6E000E0E201F6E1EC0BBFF1EC052
:1008AA0001F01FC002F0000E046E640E036E3EECEF
:1008BA0007F001C007F002C008F0010ECB24096E50
:1008CA000A6A000E0A226EEC06F007C01CF008C085
:1008DA001DF01CC00EF01DC00FF007EC07F0010E52
:1008EA000DEC05F0010E0F6E010E2AEC06F0010E5A
:1008FA000F6EDDEC06F02650300F98EC04F0245011
:10090A00300F98EC04F0060E0F6EDDEC06F0C30E05
:10091A001A6ECD0EE82EFED71A2EFCD700000DEF68
:10092A0004F000EF00F00E6E0E44010B066E0E444A
:10093A00E846030B010B076E0E38E842070B010B62
:10094A00086E0E380F0B010B096E0E38E8461F0BA6
:10095A00010B0A6E0E40E8423F0B010B0B6ED8905A
:10096A000E30010B0C6E0E50010B0D6E8C948C80A8
:10097A000F0E8C1609C001F0013AF00E011608C0DC
:10098A0002F0050E036ED8900236032EC8EF04F06B
:10099A0007C004F0060E056ED8900436052ED1EF76
:1009AA0004F00640800B0410021001108C120000A3
:1009BA008C84000000008C940F0E8C160DC001F080
:1009CA00013AF00E01160CC002F0050E036ED89023
:1009DA000236032EECEF04F00BC004F0060E056E8F
:1009EA00D8900436052EF5EF04F00A40800B041067
:1009FA00021001108C1200008C84000000008C94FC
:100A0A00030E016E980EE82EFED7012EFCD71200B7
:100A1A000E6E0E44010B066E0E44E846030B010BE4
:100A2A00076E0E38E842070B010B086E0E380F0BE3
:100A3A00010B096E0E38E8461F0B010B0A6E0E40B9
:100A4A00E8423F0B010B0B6ED8900E30010B0C6E77
:100A5A000E50010B0D6E8C948C900F0E8C1609C0E3
:100A6A0001F0013AF00E011608C002F0050E036EFD
:100A7A00D8900236032E3DEF05F007C004F0060EAB
:100A8A00056ED8900436052E46EF05F00640800B19
:100A9A000410021001108C1200008C840000000067
:100AAA008C940F0E8C160DC001F0013AF00E01164F
:100ABA000CC002F0050E036ED8900236032E61EFC9
:100ACA0005F00BC004F0060E056ED8900436052E0C
:100ADA006AEF05F00A40800B0410021001108C1214
:100AEA0000008C84000000008C94030E016E980EA6
:100AFA00E82EFED7012EFCD712000F0E95160F0E08
:100B0A008C1695948C9495908C90410E0F6EEE0EE7
:100B1A00E82EFED70F2EFCD700D0000E106E8C9058
:100B2A008C940F0E8C16300E8C1200008C840000F0
:100B3A0000008C94030E0F6E980EE82EFED70F2E2F
:100B4A00FCD7070E0F6E7D0EE82EFED70F2EFCD7B0
:100B5A000000102A020E1064B5EF05F0B7EF05F099
:100B6A0094EF05F08C908C940F0E8C168C8A0000F2
:100B7A008C84000000008C94030E0F6E980EE82EF1
:100B8A00FED70F2EFCD7280E0DEC05F0080E0DEC43
:100B9A0005F0010E0DEC05F0060E0DEC05F00C0E3D
:100BAA000DEC05F01200000E156E000E166E000E0A
:100BBA00176E000E186E1150121013101410D8B4BC
:100BCA00E9EF05F0EBEF05F021EF06F0010E196EE3
:100BDA00F5EF05F0D8901136123613361436192A65
:100BEA0014AEFAEF05F0FCEF05F0EFEF05F0D89040
:100BFA00153616361736183611500D5C12500E5827
:100C0A0013500F5814501058D8A00EEF06F010EFDA
:100C1A0006F019EF06F011500D5E12500E5A1350DD
:100C2A000F5A1450105A1580D890143213321232B7
:100C3A001132192EFCEF05F015C00DF016C00EF09A
:100C4A0017C00FF018C010F01200136E3DEF06F037
:100C5A00000E126E50EF06F0400E126E50EF06F0C4
:100C6A00140E126E50EF06F0540E126E50EF06F08C
:100C7A000F50010AD8B42DEF06F0030AD8B431EFA9
:100C8A0006F0010AD8B435EF06F0070AD8B439EFEE
:100C9A0006F02DEF06F01350D8B456EF06F058EFD1
:100CAA0006F064EF06F0110E13605EEF06F060EFD7
:100CBA0006F064EF06F01304116E66EF06F0000EFC
:100CCA00116E125011248009106E10500DEC05F0AF
:100CDA001200000E0C6E000E0B6E09500A10D8B4EA
:100CEA0079EF06F07BEF06F0A3EF06F0010E0D6E2A
:100CFA0083EF06F0D89009360A360D2A0AAE88EF35
:100D0A0006F08AEF06F07FEF06F0D8900B360C3625
:100D1A000950075C0A500858D8A096EF06F098EFD9
:100D2A0006F09DEF06F00950075E0A50085A0B803C
:100D3A00D8900A3209320D2E8AEF06F00BC007F05E
:100D4A000CC008F01200000E096E000E0A6E000EAA
:100D5A000B6E000E0C6E01A0B5EF06F0B7EF06F0B1
:100D6A00BFEF06F00550092606500A2207500B224B
:100D7A0008500C22D8900536063607360836D89021
:100D8A0004320332023201320150021003100410FD
:100D9A00D8A4D2EF06F0D4EF06F0B0EF06F009C0FF
:100DAA0001F00AC002F00BC003F00CC004F01200FC
:100DBA00000E116EEDEF06F00F501124106E10C0E8
:100DCA00F6FF080EF76E0800F55098EC04F0112AA9
:100DDA00100E1160F3EF06F0F5EF06F006EF07F0DC
:100DEA000F501124106E10C0F6FF080EF76E08009F
:100DFA00F5500009D8A404EF07F006EF07F0E1EF79
:100E0A0006F012000EC007F00FC008F0000E0A6EBE
:100E1A000A0E096E6EEC06F007C026F008C027F02D
:100E2A0026C001F027C002F0000E046E0A0E036EFF
:100E3A003EEC07F001500E5E02500F5A0EC024F02D
:100E4A000FC025F01200C290C150F00B0B09C16E01
:100E5A00C198C19AC050F80B0209C06EC050C70BA6
:100E6A001009C06EC08EC250C30B0C09C26EC2807C
:100E7A00120001500302F3CF05F0F4CF06F001503F
:100E8A000402F350062602500302F350062605C058
:100E9A0001F006C002F0120000EE20F0080EEE6A21
:100EAA00E806FDE1000EF86E000105EF04F0CA94B1
:100EBA00CA50FC0B0109CA6E870ECA167D0ECB6E8C
:100ECA00CA84120094925CEC07F0040EBB6ECF0E3B
:0E0EDA00BA16BA86BA841200F28EF28C12009A
:020000040020DA
:08000000FFFFFFFFFFFFFFFF00
:020000040030CA
:0E0000000000181EFF0181FF0FC00FE00F402F
:00000001FF
