:04000000B5EF3FF029
:107F6A000001B8EF3FF0000E956E000E8C6E0650C1
:107F7A00D8A4C2EF3FF0C4EF3FF0C8EF3FF0000EC5
:107F8A00056ED9EF3FF00604D8A4CEEF3FF0D0EF4C
:107F9A003FF0D6EF3FF0010E056E000E046ED9EFEA
:107FAA003FF004500324056E05C08CFF030E026ED9
:107FBA008A0E016E560EE82EFED7012EFCD7022E2F
:107FCA00FAD70D0E0618D8A4EDEF3FF0EFEF3FF009
:107FDA00F7EF3FF0000E066E000E036E000E046E01
:107FEA00BCEF3FF0062A04C003F005C004F0BCEF62
:067FFA003FF000EF00F073
:020000040020DA
:08000000FFFFFFFFFFFFFFFF00
:020000040030CA
:0E00000000001E1EFF0385FF0FC00FE00F4023
:00000001FF
