:04000000E6EF06F031
:100800000020202020434F525245435441202020B5
:10081000200020202020494E47524553415220209D
:10082000202000202020434F4E54524153454E413A
:1008300020202000202020494E434F52524543544F
:0D0840004120202000686F6C610A0D00004F
:10084E0028C018F029C019F02AC01AF02BC01BF0CE
:10085E00000E256E010E246E27EC07F00EEC07F04D
:10086E00F9EC05F0010E83EC05F0010E0F6E010E92
:10087E0051EC06F0120E0F6E95EC06F0020E0F6E96
:10088E00010E51EC06F0230E0F6E95EC06F0020EE3
:10089E00156EE70E146E000EE82EFED7142EFCD742
:1008AE00152EFAD700D0000E276E000E266EFBEC2A
:1008BE0006F0146E156A2650020DF3501C0FD96EF9
:1008CE00DA6A14C0DEFF15C0DDFF2650020DF350AC
:1008DE001C0FD96EDA6ADF501CEC07F024042510C9
:1008EE00D8A47CEF04F07EEF04F09BEF04F02650CA
:1008FE00020DF3501C0FD96EDA6A2650180FE16EF6
:10090E00E26AE750166E176ADE50161809E1DE50DD
:10091E001718D8B495EF04F097EF04F09BEF04F09E
:10092E00000E256E000E246E264A272A275009E156
:10093E00040E265CD8A0A6EF04F0A8EF04F05EEF3C
:10094E0004F0490E016E000E036E020E026EBFEC35
:10095E0006F024502510D8A4B7EF04F0B9EF04F038
:10096E00DEEF04F0010E83EC05F0010E0F6E010EAA
:10097E0051EC06F0230E0F6E95EC06F0010E0F6E85
:10098E00020E51EC06F0340E0F6E95EC06F08A82D4
:10099E001A0E156E5E0E146E6E0EE82EFED7142E07
:1009AE00FCD7152EFAD700D08A9239EF04F0010E3B
:1009BE0083EC05F0010E0F6E010E51EC06F0230EC6
:1009CE000F6E95EC06F0010E0F6E020E51EC06F056
:1009DE00010E0F6E95EC06F08A80450E016E000E2C
:1009EE00036E060E026EBFEC06F0270E156E0D0E90
:1009FE00146E260EE82EFED7142EFCD7152EFAD71F
:100A0E0000D08A9039EF04F000EF00F00E6E0E4425
:100A1E00010B066E0E44E846030B010B076E0E38F3
:100A2E00E842070B010B086E0E380F0B010B096E17
:100A3E000E38E8461F0B010B0A6E0E40E8423F0BC4
:100A4E00010B0B6ED8900E30010B0C6E0E50010B7D
:100A5E000D6E8C948C800F0E8C1609C001F0013A2D
:100A6E00F00E011608C002F0050E036ED890023685
:100A7E00032E3DEF05F007C004F0060E056ED8906C
:100A8E000436052E46EF05F00640800B04100210CA
:100A9E0001108C1200008C84000000008C940F0E4C
:100AAE008C160DC001F0013AF00E01160CC002F0CA
:100ABE00050E036ED8900236032E61EF05F00BC0C3
:100ACE0004F0060E056ED8900436052E6AEF05F07A
:100ADE000A40800B0410021001108C1200008C844E
:100AEE00000000008C94070E016E7D0EE82EFED7DE
:100AFE00012EFCD7000012000E6E0E44010B066E86
:100B0E000E44E846030B010B076E0E38E842070B46
:100B1E00010B086E0E380F0B010B096E0E38E846EE
:100B2E001F0B010B0A6E0E40E8423F0B010B0B6EC2
:100B3E00D8900E30010B0C6E0E50010B0D6E8C9476
:100B4E008C900F0E8C1609C001F0013AF00E0116B2
:100B5E0008C002F0050E036ED8900236032EB3EFD6
:100B6E0005F007C004F0060E056ED8900436052E6B
:100B7E00BCEF05F00640800B0410021001108C1221
:100B8E0000008C84000000008C940F0E8C160DC09B
:100B9E0001F0013AF00E01160CC002F0050E036EC4
:100BAE00D8900236032ED7EF05F00BC004F0060ED8
:100BBE00056ED8900436052EE0EF05F00A40800B46
:100BCE000410021001108C1200008C840000000032
:100BDE008C94070E016E7D0EE82EFED7012EFCD7EB
:100BEE00000012000F0E95160F0E8C1695948C9415
:100BFE0095908C90A30E0F6E550EE82EFED70F2EED
:100C0E00FCD70000000E106E8C908C940F0E8C167C
:100C1E00300E8C1200008C84000000008C94070EA5
:100C2E000F6E7D0EE82EFED70F2EFCD70000110E94
:100C3E000F6E3A0EE82EFED70F2EFCD700D0102ADC
:100C4E00020E10642DEF06F02FEF06F00BEF06F0FC
:100C5E008C908C940F0E8C168C8A00008C84000065
:100C6E0000008C94070E0F6E7D0EE82EFED70F2E11
:100C7E00FCD70000280E83EC05F0080E83EC05F07F
:100C8E00010E83EC05F0060E83EC05F00C0E83ECE2
:100C9E0005F01200136E64EF06F0000E126E77EF81
:100CAE0006F0400E126E77EF06F0140E126E77EF0E
:100CBE0006F0540E126E77EF06F00F50010AD8B4FC
:100CCE0054EF06F0030AD8B458EF06F0010AD8B470
:100CDE005CEF06F0070AD8B460EF06F054EF06F0AA
:100CEE001350D8B47DEF06F07FEF06F08BEF06F0D1
:100CFE00110E136085EF06F087EF06F08BEF06F00E
:100D0E001304116E8DEF06F0000E116E12501124A9
:100D1E008009106E105083EC05F01200000E116E5B
:100D2E00A5EF06F00F501124106E10C0F6FF080E3E
:100D3E00F76E0800F5500DEC05F0112A100E11603B
:100D4E00ABEF06F0ADEF06F0BEEF06F00F5011243C
:100D5E00106E10C0F6FF080EF76E0800F550000971
:100D6E00D8A4BCEF06F0BEEF06F099EF06F0120025
:100D7E00000E066E000E066ED7EF06F0015006242A
:100D8E00046E04C0F6FF080EF76E0800F5CFADFF37
:100D9E00ACA2D4EF06F0D6EF06F0CFEF06F0062A9F
:100DAE000650046E056A0250045C03500558D8A024
:100DBE00E3EF06F0E5EF06F0C5EF06F01200580E71
:100DCE00F66E0E0EF76E000EF86E00EE28F010EEB8
:100DDE0004F00900F5CFEEFFE550E150FAE1000E08
:100DEE00F86E000127EF04F09EAA00EF07F002EF65
:100DFE0007F0FBEF06F0ABA207EF07F009EF07F0E5
:100E0E000BEF07F0AB98AB889E9AAE501200000E17
:100E1E00B06E400EAF6E949C948EAB8EAC8AAC9836
:100E2E00AC84B896AB9CAB881200016E01C0ADFFCE
:100E3E00ACA224EF07F026EF07F01FEF07F0120029
:0E0E4E00939093928A908A921200313939342F
:020000040020DA
:08000000FFFFFFFFFFFFFFFF00
:020000040030CA
:0E000000000C191EFF0181FF0FC00FE00F4022
:00000001FF
