:0400000041EF08F0D4
:1008000000494E4752455341522041464F524F20D6
:100810004D41582E203C32302C3135303E203A208C
:100820000041464F524F20414C204C494D495445C0
:10083000210A0D0050554544452050415341522056
:10084000202E2E2E0A0D004553504552452053555B
:10085000205455524E4F0A0D004D414C4C204445FA
:070860004C2053555200002B
:10086800000E2E6E000E2D6E000E286E000E276EE6
:10087800000E306E000E2F6E000E2A6E640E296E6A
:1008880084EC08F097EC08F0310E016E000E036E50
:10089800020E026E1CEC08F0590E016E000E036E7B
:1008A8000C0E026E1CEC08F00B0E106E260E0F6E6E
:1008B8005E0EE82EFED70F2EFCD7102EFAD7310E7B
:1008C800016E000E036E020E026E1CEC08F0010EA3
:1008D800016E000E036E1F0E026E1CEC08F058EF3E
:1008E80005F071EC08F00F6E106A2F50020DF350EE
:1008F800130FD96EDA6A0FC0DEFF10C0DDFF2F506C
:10090800020DF350130FD96EDA6A2D0EDE18DE10C1
:10091800D8A491EF04F093EF04F010EF05F0020E65
:100928002F183010D8A49BEF04F09DEF04F0B7EF18
:1009380004F013C001F014C002F0000E046E0A0E99
:10094800036E5EEC08F01550012616500222F00ED8
:100958000124296EFD0E02202A6E000E286E010E5B
:10096800276E1BEF05F0030E2F183010D8A4BFEF29
:1009780004F0C1EF04F0EBEF04F013C001F014C071
:1009880002F0000E046E640E036E5EEC08F001C007
:100998000FF002C010F015C001F016C002F0000EF2
:1009A800046E0A0E036E5EEC08F001500F24116EFF
:1009B80002501020126E1750112618501222300EB5
:1009C8001124296EEB0E12202A6EB1EF04F0000EEE
:1009D800286E000E276E000E306E000E2F6E000E71
:1009E8002C6E000E2B6E03EF05F02B50020DF3500A
:1009F800130FD96EDA6ADE6ADD6A2B4A2C2A2F5069
:100A08002B5C30502C58D8A00CEF05F00EEF05F0F9
:100A1800F9EF04F01BEF05F02F50020DF350130F00
:100A2800D96EDA6ADF50A5EC08F02F4A302A2A502E
:100A380009E1140E295CD8A024EF05F026EF05F093
:100A480031EF05F02A5009E1970E295CD8A02FEF65
:100A580005F031EF05F058EF05F0000E286E000E96
:100A6800276E000E306E000E2F6E000E2C6E000EDC
:100A78002B6E49EF05F02B50020DF350130FD96E72
:100A8800DA6ADE6ADD6A2B4A2C2A2F502B5C30503A
:100A98002C58D8A052EF05F054EF05F03FEF05F0C1
:100AA800000E2A6E640E296E27502810D8B45FEF06
:100AB80005F061EF05F075EF04F0310E016E000EE0
:100AC800036E020E026E1CEC08F080A06EEF05F0BB
:100AD80070EF05F0EDEF05F080B275EF05F077EFF8
:100AE80005F0EDEF05F08D80030E0F6E980EE82EE1
:100AF800FED70F2EFCD78D90320E0F6E580EE82EB3
:100B0800FED70F2EFCD700D0340E016E000E036EF8
:100B1800120E026E1CEC08F02DC00DF02EC00EF067
:100B280063EC07F08A8E8C808C82CFEF05F03B5007
:100B3800310FD96EDA6ADF508A6E8A8E8C92030E74
:100B48000F6E980EE82EFED70F2EFCD78C808C8265
:100B58003D50310FD96EDA6ADF508A6E8A8E8C90DA
:100B6800030E0F6E980EE82EFED70F2EFCD78A8E36
:100B78008C808C823F50310FD96EDA6ADF508A6ED2
:100B88008A9E030E0F6E980EE82EFED70F2EFCD706
:100B98008A8E8C808C8280B0D4EF05F0D6EF05F079
:100BA8009BEF05F029502D5C2A502E58D8B0DFEF66
:100BB80005F0E1EF05F0E5EF05F02D4A2E2AEDEFFF
:100BC80005F0210E016E000E036E120E026E1CEC73
:100BD80008F080A4F2EF05F0F4EF05F05EEF06F000
:100BE80080B6F9EF05F0FBEF05F05EEF06F08D82B9
:100BF800030E0F6E980EE82EFED70F2EFCD78D929F
:100C0800320E0F6E580EE82EFED70F2EFCD700D0EE
:100C18002DC00DF02EC00EF063EC07F08A8E8C808C
:100C28008C824BEF06F03B50310FD96EDA6ADF50F9
:100C38008A6E8A8E8C92030E0F6E980EE82EFED75F
:100C48000F2EFCD78C808C823D50310FD96EDA6A1A
:100C5800DF508A6E8A8E8C90030E0F6E980EE82EE7
:100C6800FED70F2EFCD78A8E8C808C823F50310F96
:100C7800D96EDA6ADF508A6E8A9E030E0F6E980E5E
:100C8800E82EFED70F2EFCD78A8E8C808C8280B4FB
:100C980050EF06F052EF06F017EF06F02D502E1029
:100CA800D8B459EF06F05BEF06F05EEF06F02D06BC
:100CB800D8A02E0680A263EF06F065EF06F0C4EF19
:100CC80006F0470E016E000E036E110E026E1CEC4C
:100CD80008F08D80040E0F6EE40EE82EFED70F2E5E
:100CE800FCD700D08D90310E0F6E0C0EE82EFED77B
:100CF8000F2EFCD72DC00DF02EC00EF063EC07F0C0
:100D08008A8E8C808C82BDEF06F03B50310FD96EF5
:100D1800DA6ADF508A6E8A8E8C92030E0F6E980EF6
:100D2800E82EFED70F2EFCD78C808C823D50310FD9
:100D3800D96EDA6ADF508A6E8A8E8C90030E0F6E37
:100D4800980EE82EFED70F2EFCD78A8E8C808C82C8
:100D58003F50310FD96EDA6ADF508A6E8A9E030ED1
:100D68000F6E980EE82EFED70F2EFCD78A8E8C8039
:100D78008C8280B2C2EF06F0C4EF06F089EF06F06D
:100D880080A6C9EF06F0CBEF06F022EF07F08D82C0
:100D9800040E0F6EE40EE82EFED70F2EFCD700D0FF
:100DA8008D92310E0F6E0C0EE82EFED70F2EFCD74B
:100DB8002DC00DF02EC00EF063EC07F08A8E8C80EB
:100DC8008C821BEF07F03B50310FD96EDA6ADF5087
:100DD8008A6E8A8E8C92030E0F6E980EE82EFED7BE
:100DE8000F2EFCD78C808C823D50310FD96EDA6A79
:100DF800DF508A6E8A8E8C90030E0F6E980EE82E46
:100E0800FED70F2EFCD78A8E8C808C823F50310FF4
:100E1800D96EDA6ADF508A6E8A9E030E0F6E980EBC
:100E2800E82EFED70F2EFCD78A8E8C808C8280B657
:100E380020EF07F022EF07F0E7EF06F08A8E8C80AC
:100E48008C822DC00DF02EC00EF063EC07F03B50E5
:100E5800310FD96EDA6ADF508A6E8A8E8C92030E51
:100E68000F6E980EE82EFED70F2EFCD78C808C8242
:100E78003D50310FD96EDA6ADF508A6E8A8E8C90B7
:100E8800030E0F6E980EE82EFED70F2EFCD78A8E13
:100E98008C808C823F50310FD96EDA6ADF508A6EAF
:100EA8008A9E030E0F6E980EE82EFED70F2EFCD7E3
:100EB8008A8E8C808C8269EF05F000EF00F00DC0FF
:100EC80006F00EC007F0030E096EE80E086EB0ECCF
:100ED80007F006C041F007C042F0030E046EE80EAA
:100EE800036E0DC001F00EC002F0EAEC07F001C07D
:100EF80006F002C007F0000E096E640E086EB0EC32
:100F080007F006C03FF007C040F0000E046E640E04
:100F1800036E0DC001F00EC002F0EAEC07F001C04C
:100F280006F002C007F0000E096E0A0E086EB0EC5B
:100F380007F006C03DF007C03EF00DC001F00EC03E
:100F480002F0000E046E0A0E036EEAEC07F001C010
:100F58003BF002C03CF01200000E0B6E000E0A6E51
:100F680008500910D8B4BBEF07F0BDEF07F0E5EF64
:100F780007F0010E0C6EC5EF07F0D8900836093659
:100F88000C2A09AECAEF07F0CCEF07F0C1EF07F063
:100F9800D8900A360B360850065C09500758D8A076
:100FA800D8EF07F0DAEF07F0DFEF07F00850065E3A
:100FB8000950075A0A80D890093208320C2ECCEF13
:100FC80007F00AC006F00BC007F012000350041027
:100FD800D8B4F1EF07F0F3EF07F017EF08F0010EC0
:100FE800056EFBEF07F0D89003360436052A04AEE9
:100FF80000EF08F002EF08F0F7EF07F00350015C8C
:1010080004500258D8A00BEF08F00DEF08F011EFCC
:1010180008F00350015E0450025AD890043203329B
:10102800052E02EF08F001C001F002C002F0120024
:10103800000E066E000E066E32EF08F00150062410
:10104800046E04C0F6FF0800F5CFADFFACA22FEF89
:1010580008F031EF08F02AEF08F0062A0650046E6F
:10106800056A0250045C03500558D8A03EEF08F00A
:1010780040EF08F022EF08F01200600EF66E110E35
:10108800F76E000EF86E00EE31F010EE0AF009006F
:10109800F5CFEEFFE550E150FAE100EE3BF0080E27
:1010A800EE6AE806FDE1000EF86E080EF76E000124
:1010B80034EF04F001500302F3CF05F0F4CF06F04B
:1010C80001500402F350062602500302F35006268C
:1010D80005C001F006C002F012009EAA76EF08F0E3
:1010E80078EF08F071EF08F0ABA27DEF08F07FEF22
:1010F80008F081EF08F0AB98AB889E9AAE501200CA
:101108000F0EC1129280928292849286000E936E84
:10111800000E956E96909692800E8A16030E8C6E2F
:101128008D908D921200000EB06E080EAF6E949CDA
:10113800948EAB8EAC8AAC98AC84B896AB9CAB88DA
:101148001200016E01C0ADFFACA2ADEF08F0AFEF29
:1011580008F0A8EF08F012003F065B4F666D7D07A8
:021168007F6F97
:020000040020DA
:08000000FFFFFFFFFFFFFFFF00
:020000040030CA
:0E000000000C191EFF0181FF0FC00FE00F4022
:00000001FF
